:020000041000EA
:10000000003C0008C9000010D1000010D100001011
:10001000D1000010D1000010D1000010D10000105C
:10002000D1000010D1000010D1000010D10000104C
:10003000D1000010D1000010D1000010D10000103C
:10004000D1000010D1000010D1000010D10000102C
:10005000D1000010D1000010D1000010D10000101C
:10006000D1000010D1000010D1000010D10000100C
:10007000D1000010D1000010D1000010D1000010FC
:100080000B490A4808600B4908680B4A10400B4AA4
:10009000104308600A494868C006FCD562B60420CF
:1000A0000849086100BF00BF30BFFAE70004001034
:1000B0000002204000122040FCFF00000300FA056F
:1000C0000000204000ED00E00020FFF7D9FF30BF26
:1000D0007047000000000000000000000000000069
:1000E0000000000000000000000000000000000010
:1000F0000000000000000000000000000000000000
:1001000000000000000000000000000000000000EF
:1001100000000000000000000000000000000000DF
:1004000000F8010883B102100D000000CFB1021006
:10041000D1B10210D3B10210D5B10210000000001A
:10042000000000000000000000000000D7B1021032
:10043000D9B1021000000000DBB10210DDB10210E2
:10044000DFB10210DFB10210DFB10210DFB1021024
:10045000DFB10210DFB10210DFB10210DFB1021014
:10046000DFB10210DFB10210DFB10210DFB1021004
:10047000DFB10210DFB10210DFB10210DFB10210F4
:10048000DFB10210DFB10210DFB10210DFB10210E4
:10049000DFB10210DFB10210DFB10210DFB10210D4
:1004A000DFB10210DFB10210DFB10210DFB10210C4
:1004B000DFB10210DFB10210DFB10210DFB10210B4
:1004C000DFB10210DFB10210DFB102100000000046
:1004D000000000000000000000000000000000001C
:1004E000000000000000000000000000000000000C
:1004F0000000000000000000DFB10210DFB10210B8
:10050000DFB10210DFB10210DFB10210DFB1021063
:10051000DFB10210DFB10210DFB10210DFB1021053
:10052000DFB10210DFB10210DFB10210DFB1021043
:10053000DFB10210DFB10210DFB10210DFB1021033
:10054000DFB10210DFB10210DFB10210DFB1021023
:10055000DFB10210DFB10210DFB10210DFB1021013
:10056000DFB10210DFB10210DFB10210DFB1021003
:10057000DFB10210DFB10210DFB10210DFB10210F3
:10058000DFB10210DFB10210DFB10210DFB10210E3
:10059000DFB10210DFB10210DFB10210DFB10210D3
:1005A000DFB10210DFB10210DFB10210DFB10210C3
:1005B000DFB10210DFB10210DFB10210DFB10210B3
:1005C000DFB10210DFB10210DFB10210DFB10210A3
:1005D000DFB10210DFB10210DFB10210DFB1021093
:1005E000DFB10210DFB10210DFB10210DFB1021083
:1005F000DFB10210DFB10210DFB10210DFB1021073
:10060000DFB10210DFB10210DFB10210DFB1021062
:10061000DFB10210DFB10210DFB10210DFB1021052
:10062000DFB10210DFB10210DFB10210DFB1021042
:10063000DFB10210DFB10210DFB10210DFB1021032
:10064000DFB10210DFB10210DFB10210DFB1021022
:10065000DFB10210DFB10210DFB10210DFB1021012
:10066000DFB10210DFB10210DFB10210DFB1021002
:10067000DFB10210DFB1021000F002F800F06CF8F8
:100680000AA090E8000C82448344AAF10107DA45ED
:1006900001D100F061F8AFF2090EBAE80F0013F0D3
:1006A000010F18BFFB1A43F001031847D0C1020025
:1006B00010C202000A444FF0000C10F8013B13F086
:1006C000070408BF10F8014B1D1108BF10F8015BAB
:1006D000641E05D010F8016B641E01F8016BF9D19E
:1006E00013F0080F1EBF10F8014BAD1C0C1B09D1F5
:1006F0006D1E58BF01F801CBFAD505E014F8016B67
:1007000001F8016B6D1EF9D59142D6D370470000F8
:10071000103A24BF78C878C1FAD8520724BF30C82D
:1007200030C144BF04680C607047000000230024FF
:1007300000250026103A28BF78C1FBD8520728BFF1
:1007400030C148BF0B6070471FB52AF061FF2AF027
:1007500037FF1FBD10B510BDDFF80CD0FFF7F4FF59
:100760000EF01DFA2AF03EFF00F8010803B4FFF76F
:10077000F1FF03BC2AF040FFFEE700002C4B196894
:100780000868B0E8F04F80F30988BFF36F8F4FF02F
:10079000000080F3118870470000000008480068DE
:1007A000006880F308884FF0000080F3148862B678
:1007B00061B6BFF34F8FBFF36F8F00DF00BF00BF85
:1007C00008ED00E0DFF80C00016841F47001016001
:1007D000704700BF88ED00E0EFF30980BFF36F8F33
:1007E000134B1A681EF0100F08BF20ED108A20E985
:1007F000F04F106009B44FF0400080F31188BFF350
:100800004F8FBFF36F8F27F021FD4FF0000080F373
:10081000118809BC19680868B0E8F04F1EF0100F85
:1008200008BFB0EC108A80F30988BFF36F8F704760
:1008300010530008EFF305807047000030B58DB00D
:10084000342168462AF067FE0620019000208DF8CA
:100850000800002423E0002519E0354800EB0410CF
:1008600000683449884202D10320079001E000204B
:1008700007902F4A02EB0412521D515D2C4A02EBE5
:10088000041210686A4612F04CF8681CC5B2284879
:1008900000EB04100079A842DFDC601CC4B2032C1A
:1008A000D9D3002417E000250DE0234A02EB0412FF
:1008B000521D515D204A02EB041210686A4612F084
:1008C00030F8681CC5B21C4800EB04100079A8423F
:1008D000EBDC601CC4B2052CE5D30DB030BD10B507
:1008E000002021E0002117E0114C04EB00142368E4
:1008F0000F4C04EB0014641D625C00BF00BF082AAB
:1009000003D300BF01BE00BF00BF00BF012494405D
:10091000DC6000BF4A1CD1B2054A02EB001212791A
:100920008A42E1DC421CD0B20328DBD310BD0000B8
:10093000FC45000800033140AC45000830B5694C67
:1009400004EB41131A68012303EAD2732BB942F076
:100950000043254605EB41142360624B03EB411332
:10096000D86001235F4C04EB4114A36030BD30B567
:100970005D4B18605B4C04EB41131A68012303EADA
:10098000D2732BB942F00043254605EB4114236096
:10099000554B544C04EB4114E3600123514C04EBE0
:1009A0004114A36030BD024600230CE04F480068AC
:1009B00000F0004038B100E05B1C4C48006800F0DB
:1009C00000400028F8D1474800EB4210C06900F011
:1009D0000040B0F1004FE9D0012904D1414800EBBB
:1009E0004210C068704740480068FBE770B5044695
:1009F0000D46164624B931462846FFF7B8FF05E0F4
:100A000045F0010531462846FFF798FF214630465C
:100A1000FFF7C9FF70BD10B50446184610BD024669
:100A200001208A4201D1002000E00120704770B50A
:100A300006460C4615462878002141EA00202A493E
:100A400008600846224601683046FFF7CFFF284974
:100A500008600846006870BD70B506460C4615462D
:100A60004FF020402249086028884FF0407141EA49
:100A700000201D4908600846224601683046FFF7FD
:100A8000B5FF1B4908600846006870BD10B501201D
:100A9000184908700A4601210020FFF7C8FF1449D1
:100AA0000860002014490860002416E01348048000
:100AB000024601210020FFF7CFFF0D4908600846DC
:100AC000006800F07040B0F1204F04D00A48006880
:100AD000401C09490860601CC4B2802CE6DB064853
:100AE000006810BD00002240AC53000884000140A3
:100AF0002C480008344800083848000836480008E8
:100B000010B5A8B062B64B4810F02EFF34211BA8D8
:100B10002AF001FD06201C9008208DF874001BAA05
:100B20000021454811F0FDFE042406E01BAA2146E1
:100B3000414811F0F6FE601CC4B2062CF6DB1BAA7D
:100B400001213E4811F0EDFE1BAA03213A488030F6
:100B500011F0E7FE1BAA04213748803011F0E1FEB6
:100B6000062407E01BAA21463348803011F0D9FE45
:100B7000601CC4B2082CF5DB002413E0F0222146EF
:100B8000002017F027FF2146002018F019F80A204E
:100B900019F0EBFCE11DC8B22246002117F0CFFF8F
:100BA000601CC4B2082CE9DB682101A82AF0B3FC60
:100BB000042001900020029003900590642006908C
:100BC0004FF400400790322009904FF480400A9083
:100BD00003201890012019900320149001201590F3
:100BE000002413E001AA2146154819F0B9FE204659
:100BF00000BF01218140124A916000BF00BF00BFC9
:100C000001218140116100BF601CC4B2082CE9DBE6
:100C100028B010BD002009E0014600BF01228A4033
:100C2000074B5A6000BF00BF411CC8B20828F3DB65
:100C300070470000F0BE02100004314080003140D7
:100C40000000404010B5044608220321012017F09F
:100C5000C1FE0321012017F0B3FF0A2019F085FC23
:100C600020780322012117F06AFF10BD10B500247F
:100C700015E0C4EB0412F94B03EB820104EBC40250
:100C8000F74B03EBC202506816F046FE04EBC401BA
:100C9000F34A02EBC101486816F01CFE641C032CE9
:100CA000E7D310BD10B58EB00446342101A82AF058
:100CB00032FC20690290207D8DF80C0001AAD4E955
:100CC000100111F02EFE0EB010BD10B59EB03421F3
:100CD00011A82AF020FC402101A82AF01CFC0024C5
:100CE0009FE004EBC401DE4A02EBC100FFF7AAFF5C
:100CF00004EBC401DA4A02EBC100FFF7D3FF402145
:100D000001A82AF008FCC4EB0411D44A02EB8100CC
:100D10003C212AF000FC00208DF8040009200290FC
:100D20000820039000208DF8100002208DF811009B
:100D300000208DF812000C200C9003200D90002054
:100D40000E900F901090C4EB0411C44B03EB810282
:100D500004EBC401C24B03EBC101486801A916F0C2
:100D60006BFC04EBC401BE4A02EBC101486800F50C
:100D70000170016841F480310160016821F4803123
:100D800001600168A0F5017000BF04EBC40102EB33
:100D9000C101486800F54170016841F4803101608B
:100DA000016821F4803101600168A0F5417000BF45
:100DB00004EBC402AA4B03EBC2024FF4007051686B
:100DC00000BF00BF40F2737220EA02021AB100BFF6
:100DD00001BE00BF00BF00BFC1F8880F00BF04EB19
:100DE000C4029F4B03EBC2020120516800BF00BF49
:100DF00040F66D3220EA02021AB100BF01BE00BF08
:100E000000BF00BFC1F8C80F00BF04EBC401944A83
:100E100002EBC1014868016841F00041016000BF78
:100E2000641C032CFFF45DAF1EB010BDF0B56EE086
:100E300000EBC0058A4E06EBC5056968D1F8805FF6
:100E400040F2737605EA060400BF00EBC006844F4B
:100E500007EBC6062146756800BF00BF40F27376F7
:100E600021EA06061EB100BF01BE00BF00BF00BFE1
:100E7000C5F8801FD5F8806F00BF00EBC005784E25
:100E800006EBC5056968D1F8C05F40F66D3605EA26
:100E9000060200BF00EBC006714F07EBC606114605
:100EA000756800BF00BF40F66D3621EA06061EB128
:100EB00000BF01BE00BF00BF00BFC5F8C01FD5F80E
:100EC000C06F00BF02F00101F9B100EBC005644E34
:100ED00006EBC505696800BFD1F80853C5F30803E0
:100EE00000BF00BF002529460DE000EBC0065C4FA7
:100EF00007EBC6067568D5F840635A4D45F8216082
:100F00004D1CEDB229469942EFD3411C08460328F7
:100F10008ED3F0BD10B504462089534908800320C4
:100F20004860AFF2F701504819F0CBFA4E49B1F9D9
:100F3000000000280DDB00BF00BF00F01F020121F0
:100F400091404209920002F1E022C2F8001100BF74
:100F500000BF00BF10BD30B5002014E000221146D4
:100F60000EE000EBC0043E4D05EBC40462683F4C4C
:100F700054F82130C2F8403200BF4A1CD2B21146A8
:100F80000529EEDB401C0328E8D330BD70B50546CB
:100F900028462AF000FA86B200240EE002E00A2079
:100FA00019F0E3FA324800F0DEF81028F7D2285D95
:100FB0003049086000BF601C84B2B442EEDB70BDF3
:100FC00010B5044600BF2A4800F0CDF81028FAD228
:100FD0000A21B1EB241F04DC412101EB24110A3961
:100FE00002E0302101EB241108462249086000BFCD
:100FF00004F00F010A2903DB04F00F01373102E08E
:1010000004F00F01303108461A49086000BF202063
:101010001749C1F8400200BF10BD10B5044600BF1B
:10102000134800F0A0F81028FAD20A21B1EB147F7F
:1010300004D8412101EB14710A3902E0302101EB9F
:10104000147108460B49086000BFC4F303610A2904
:1010500012D3C4F30361373111E00000C05400081B
:1010600050480008AC540008284900083C480008D3
:101070000000514040025140C4F303613031084642
:101080003C49086000BFC4F303510A2903D3C4F3E9
:101090000351373102E0C4F303513031084635497A
:1010A000086000BFC4F303410A2903D3C4F303411A
:1010B000373102E0C4F30341303108462D4908605E
:1010C00000BFC4F303310A2903D3C4F3033137311A
:1010D00002E0C4F30331303108462649086000BFFE
:1010E000C4F303210A2903D3C4F30321373102E0F7
:1010F000C4F30321303108461E49086000BFC4F321
:1011000003110A2903D3C4F30311373102E0C4F3F6
:101110000311303108461749086000BF04F00F0181
:101120000A2903D304F00F01373102E004F00F0164
:10113000303108460F49086000BF0A200E49C1F847
:10114000400200BF10BD70B505460E46002404E005
:10115000285DFFF735FF601C84B2B442F8DB07A0BE
:10116000FFF714FF70BD014600BFD1F80802C0F3BD
:101170000800704740025140000051400A00000042
:1011800010B5044602221146012017F023FC02216B
:10119000012017F015FD0A2019F0E7F92078022246
:1011A000012117F0CCFC10BD10B5002415E004EBB4
:1011B0004401994A02EB8111486815F027FF04EBBE
:1011C000C402964B03EB820104EB4402924B03EB07
:1011D0008212506815F037FF641C002CE7D010BD58
:1011E00030B58DB00546342168462AF094F90024C4
:1011F00022E0C4EB041105F10C0000EB8100406813
:101200000190C4EB041105F10C0000EB8100007AA1
:101210008DF80800C4EB041305F10C0202EB830205
:10122000C4EB0413916B05F10C0202EB8302506BCB
:101230006A4611F076FB641C032CDAD30DB030BD86
:1012400010B59EB0342111A82AF065F9402101A8FB
:101250002AF061F9002441E004EB44016E4A02EBFC
:101260008110FFF78DFF04EB44016B4A02EB811004
:10127000FFF7B6FF04EBC401684B03EB810204EBFC
:101280004401654B03EB81114868654915F0D0FDB9
:1012900004EB4402604B03EB82120020516800BF54
:1012A00000BF48B1012807D0022805D0032803D089
:1012B00000BF01BE00BF00BF00BF0A6A60F39B62AF
:1012C0000A6200BF04EB4401534A02EB81114868F3
:1012D000016841F00041016000BF641C002CBBD0DC
:1012E0001EB010BD70B54BE000EB40044A4D05EB5D
:1012F00084146168D1F8804F40F2737504EA0503E5
:1013000000BF00EB4005444E06EB851519466C689E
:1013100000BF00BF40F2737521EA05051DB100BF93
:1013200001BE00BF00BF00BFC4F8801FD4F8805FBB
:1013300000BF00EB4004384D05EB84146168D1F820
:10134000C04F40F66D3504EA050200BF00EB4005D2
:10135000314E06EB851511466C6800BF00BF40F6A4
:101360006D3521EA05051DB100BF01BE00BF00BFFC
:1013700000BFC4F8C01FD4F8C05F00BF411C0846BE
:101380000028B1D070BD1CB504462089ADF800001E
:1013900003200190AFF2B301684619F092F8BDF94D
:1013A000000000280DDB00BF00BF00F01F0201217C
:1013B00091404209920002F1E022C2F8001100BF00
:1013C00000BF00BF1CBD2DE9F041002420E0002734
:1013D00018E004EB4400104901EB8010114D052684
:1013E000D0F8048000BF00BF05B11EB900BF01BE28
:1013F00000BF00BF00BF32462946404614F0A2FAA3
:10140000781CC7B20A2FE4DB012019F099F8641C9C
:10141000002CDCD0BDE8F0813C4900087455000880
:10142000FC4900083549000870B50546284629F0F2
:10143000B2FFC6B200240EE002E00A2019F095F8CF
:101440006D4800F0D1F81028F7D2285D6B4908608C
:1014500000BF601CC4B2B442EEDB70BD10B50446E0
:1014600000BF654800F0C0F81028FAD20A21B1EB9D
:10147000241F04DC412101EB24110A3902E0302150
:1014800001EB241108465D49086000BF04F00F011C
:101490000A2903DB04F00F01373102E004F00F01E9
:1014A000303108465549086000BF10BD10B50446EC
:1014B00000BF514800F098F81028FAD20A21B1EB89
:1014C000147F04D8412101EB14710A3902E0302164
:1014D00001EB147108464949086000BFC4F3036179
:1014E0000A2903D3C4F30361373102E0C4F3036173
:1014F000303108464149086000BFC4F303510A294E
:1015000003D3C4F30351373102E0C4F30351303144
:1015100008463A49086000BFC4F303410A2903D3CF
:10152000C4F30341373102E0C4F3034130310846CC
:101530003249086000BFC4F303310A2903D3C4F35E
:101540000331373102E0C4F30331303108462B490F
:10155000086000BFC4F303210A2903D3C4F30321A5
:10156000373102E0C4F303213031084623490860D3
:1015700000BFC4F303110A2903D3C4F303113731A5
:1015800002E0C4F30311303108461C49086000BF73
:1015900004F00F010A2903D304F00F01373102E0F0
:1015A00004F00F01303108461449086000BF0D20D7
:1015B0001149C1F8400200BF0A201049086000BF6D
:1015C00010BD70B505460E463A200C49086000BFB4
:1015D000002403E0285DFFF741FF641CB442F9D307
:1015E00007A0FFF721FF70BD014600BFD1F8080238
:1015F000C0F3080070470000000051404002514015
:101600000D0A000000BF64480068014600BF624840
:101610003430D0F8CC000246084600BF00BF40F28C
:10162000071320EA03031BB100BF01BE00BF00BFC8
:1016300000BF594B0C3B1860574BCC3BD3F8C03024
:1016400000BF104600BF00BF40F2071320EA0303AB
:101650001BB100BF01BE00BF00BF00BF4E4BF43343
:1016600018604D4B3433D3F8C03000BF704710B50D
:101670000021084609E0494A52F82010464A443AF7
:10168000116000BF411CC9B208464028F3DB424844
:10169000CC3800F079F810BD00B58DB03421684623
:1016A00029F039FF0620019010208DF808006A46C5
:1016B00002213B4811F035F90620019010208DF8E9
:1016C00008006A460321364811F02BF906200190E4
:1016D00010208DF808006A460021314811F021F9E8
:1016E0000620019010208DF808006A4605212C483C
:1016F00011F017F92848CC3819F00EFB2949264873
:10170000CC3819F0D9FA00BF2348FC30006840F00B
:10171000010021493431C1F8C80000BF1E48CC384F
:1017200000F032F800BF1C483430006840F0004040
:1017300019493431086000BF00BF1748CC38006831
:1017400040F000401449CC39086000BF00BF084693
:10175000D0F8800020F48020C1F880000846D0F83E
:10176000800040F48020C1F8800000BF00BF0A481C
:101770003430D0F8800040F4802007493431C1F87B
:10178000800000BF0DB000BDD0F8C81041F00101CD
:10179000C0F8C81070470000CC805A40304A00089A
:1017A00080043140744B000810B59D49002001F5BC
:1017B000004202EB0022D2F8842002F07F0214469D
:1017C0000021974800F023F900F00100A8B10020A3
:1017D0000BE09349002201F5004303EB0223D3F809
:1017E0008830904A22F81030401CA042F1D38E4835
:1017F0000068401C8C49086032E00021884800F0F5
:1018000006F900F0020028B188480068401C8749AA
:10181000086025E00021824800F0F9F800F004009B
:1018200028B183480068401C8149086018E0002105
:101830007B4800F0ECF800F0100028B17D4800680B
:10184000401C7C4908600BE00021754800F0DFF87F
:1018500000F4807020B178480068401C7649086028
:101860006F48002140F2171200BF00BF134622EA62
:1018700003031BB100BF01BE00BF00BF00BF00F5E6
:10188000004303EB0123C3F8C02000F5004303EB42
:101890000123D3F8C03000BF10BD00B5A9B034217A
:1018A00001A829F038FE0620029011208DF80C00C6
:1018B00001AA0121614811F034F8AFF21311604818
:1018C00018F0FFFD5E49B1F90000002807DB00F0C9
:1018D0001F02012191405B4A430942F8231000BFD7
:1018E0005749B1F9000000280DDB00BF00BF00F030
:1018F0001F02012191404209920002F1E022C2F848
:10190000001100BF00BF00BF602111A829F003FE35
:1019100000200E900F90109003208DF844000020BE
:101920008DF845008DF846008DF8470001208DF8B0
:1019300048008DF84900202243490DF14A0029F062
:1019400049FD382241490DF16A0029F043FD01208B
:101950008DF8380004208DF8390001208DF83A0008
:1019600010208DF83B0004208DF83D0000208DF8FC
:101970003E008DF83F0001208DF83C008DF84000BE
:101980000A208DF8410000208DF842008DF84300B8
:1019900011A9234813F010FE00220EA9204813F0CD
:1019A000A7FD1F48002100F5004202EB012212684A
:1019B00042F0004300F5004202EB0122136000BF39
:1019C000234A11A913F0F4FE002001218140144A9A
:1019D000916000BF29B000BD10B5002001218140F9
:1019E0000F4A516000BF0021104613F01AFF0C4847
:1019F000002100F5004202EB0122126822F00043B0
:101A000000F5004202EB0122136000BF10BD024648
:101A100002F5004000EB0120D0F8CC007047000038
:101A200000003240985500087C4B0008804B0008AD
:101A3000844B0008884B00088C4B000800023140A2
:101A4000984B000880E200E01AB602103AB6021085
:101A5000904B000800BF082903D300BF01BE00BFA0
:101A600000BF00BF01228A408260704700BF082982
:101A700003D300BF01BE00BF00BF00BF01228A40E8
:101A80004260704770B598B00021F948FFF7EEFF4B
:101A900000208DF8100002208DF811008DF8120042
:101AA00001208DF8130002208DF8140000208DF81D
:101AB000150002208DF8160001208DF817008DF812
:101AC00018008DF81900EB480790EB4808900120AA
:101AD00009900A9008200B9000200C900D90012096
:101AE0000E9000200F90002407E00020E24941F80A
:101AF0002400E04840F82440641C082CF5D304A9D5
:101B000010A810F06CF9054600BF1DB100BF01BE62
:101B100000BF00BF00BF00208DF80C008DF80D0045
:101B20000320029001AA0021D44810F035FA05469E
:101B300000BF1DB100BF01BE00BF00BF00BFCF4A44
:101B4000002010A900BF00BF062803D300BF01BEBC
:101B500000BF00BF00BF02F5805303EB00231962F2
:101B600000BFC649002000BF00BF062803D300BF46
:101B700001BE00BF00BF00BF01F5805202EB002292
:101B8000126842F0004301F5805202EB002213601C
:101B900000BF00BFB948006840F00040B749086086
:101BA00000BF0221B64819F0CBF9012018F0C8FC9B
:101BB0000126002009E0AF4951F82010AE4A52F842
:101BC0002020914200D00026401C0828F3D3012E8B
:101BD00013D1AC480068401CAA4908600846006858
:101BE000FF2806D9A8A103200FF05AFE0020A5491E
:101BF000086000219E48FFF72DFF18B070BD30B57A
:101C000097B03022A64905A829F029FC0421A5484F
:101C1000FFF72CFF05A911A80FF0C8FE002407E06C
:101C2000A14840F824400020A04941F82400641C49
:101C3000082CF5D311A8019000208DF808008DF82C
:101C400010008DF811000320039011AA0A21984872
:101C500000F040F803220A21954800F0B7F801AAE5
:101C60000A2193480FF0B3FF0A21914800F077F85A
:101C70000221904819F064F9012018F061FC012557
:101C8000002009E0884951F82010884A52F82020A5
:101C9000914200D00025401C0828F3D3012D17D114
:101CA0000A21834800F018F904217E48FFF7D2FE8C
:101CB00081480068401C8049086008460068FF2889
:101CC00006D97EA103200FF0EBFD00207A490860C1
:101CD00017B030BD30B500BF754B984209D17D4B70
:101CE0001B6893F834308B4201D901230AE00023AA
:101CF00008E0784B1B6893F835308B4201D90123FB
:101D000000E000231BB900BF01BE00BF00BF00BF41
:101D1000704B1B68B3F85E3003446E4C2468B4F813
:101D2000604001FB0433DA606A4B1B68B3F85E3035
:101D30000344684C2468B4F8604001FB04339B689A
:101D40006FF30F03634C2468B4F85E400444614DA4
:101D50002D68B5F8605001FB0544A36030BD10B597
:101D600000BF534A904209D15A4A126892F834206F
:101D70008A4201D901220AE0002208E0554A12688D
:101D800092F835208A4201D9012200E000221AB9D6
:101D900000BF01BE00BF00BF00BF4E4A1268B2F8CC
:101DA0005E2013184B4A1268B2F860204A439A58D2
:101DB00042F00043474A1268B2F85E201418454AC0
:101DC0001268B2F860204A43A35010BD70B500BF3E
:101DD000374B984209D13F4B1B6893F834308B4204
:101DE00001D901230AE0002308E03A4B1B6893F86D
:101DF00035308B4201D9012300E000231BB900BF1D
:101E000001BE00BF00BF00BF00BF032A03D900BF4F
:101E100001BE00BF00BF00BF2E4B1B68B3F85E3091
:101E20001C182C4B1B68B3F860304B43E358294C0B
:101E3000246894F862500324AC40A343254C2468E2
:101E400094F8624002FA04F4224D2D6895F862601D
:101E50000325B5402C4023431E4C2468B4F85E4053
:101E600025181C4C2468B4F860404C432B5170BDBD
:101E700080003140985D0008B85D000800002A40ED
:101E800000050040A04B0008496E666F3A41505073
:101E90003A444D414320706173730D0A0000000005
:101EA00074B6021000033140D85D0008F85D0008E8
:101EB000000028400A000040A44B0008496E666FED
:101EC0003A4150503A445720636F707920706173E3
:101ED000730D0A004C52000810B500BF1A4A904218
:101EE00009D11A4A126892F834208A4201D9012293
:101EF0000AE0002208E0154A126892F835208A426A
:101F000001D9012200E000221AB900BF01BE00BFC2
:101F100000BF00BF01220D4B1B68B3F85E300344C5
:101F20000A4C2468B4F8604001FB04331A61074A84
:101F30001268B2F85E200244044B1B68B3F86030AC
:101F400001FB0322126910BD000028404C5200081A
:101F500030B50346002007E055241C54AA25441C34
:101F60001D5505240C54801C9042F5D330BD00242F
:101F700016E0002412E0002000BF00BF082803D3B1
:101F800000BF01BE00BF00BF00BF012181408A4ADF
:101F9000D16000BF642018F0D3FA641C642CEAD32B
:101FA000E7E710B58EB00024342101A829F0B3FA78
:101FB0000620029011208DF80C000320089001AA41
:101FC00000217E4810F0ADFC04460CB1FFF7CFFFB6
:101FD000012001900620029011208DF80C0001AA2A
:101FE0000121764810F09DFC0446002001900CB1C0
:101FF000FFF7BDFF0E20029011208DF80C0001AA02
:1020000000216E48803010F08CFC04460CB1FFF7C4
:10201000AEFF0E20029011208DF80C0001AA0121C4
:102020006648803010F07DFC04460CB1FFF79FFF3E
:102030000E20029011208DF80C0001AA02215F48A9
:10204000803010F06EFC04460CB1FFF790FF0E20BC
:10205000029011208DF80C0001AA0321574880300E
:1020600010F05FFC04460CB1FFF781FF0E200290D8
:1020700011208DF80C0001AA04215048803010F086
:1020800050FC04460CB1FFF772FF0E2002901120A5
:102090008DF80C0001AA05214848803010F041FC61
:1020A00004460CB1FFF763FF0E20029011208DF85B
:1020B0000C0001AA06214148803010F032FC044691
:1020C0000CB1FFF754FF0E20029011208DF80C0088
:1020D00001AA07213948803010F023FC04460CB1D6
:1020E000FFF745FF0EB010BD10B5FFF75AFF344B98
:1020F000344A3549354816F073F80021334816F054
:10210000CDF800220121314816F0DCF802221146F8
:102110002E4816F0D7F82A492C4816F06AFA4022C1
:102120002B492C48FFF714FF10BD30B585B004468D
:102130000CB1022000E00120054621480121FF22C8
:10214000CDE90125CDE90310002003460246062112
:1021500000901E4816F0E1F805B030BD0A46042193
:1021600000BF4B1ED9B25054000A0029F9D1704764
:1021700030B587B004460D4606A92046FFF7EEFFAE
:102180000020FFF7D2FF0E4800210122CDE9011205
:10219000CDE90310042006AB0A46342100900B4819
:1021A00016F0BBF806480323402229460090074852
:1021B00016F05AF907B030BD00003140000331403D
:1021C000185E0008A0860100A4B60210000041407D
:1021D000845E0008445E000810B50FF090FF10BD4B
:1021E00010B504480FF0ECFF0349024810F0F9F86D
:1021F00010BD000000F00710204500082DE9F8434D
:1022000004460D4616461F46DFF8708400BF41F2B3
:102210008440005981463B46324629462046CDF847
:1022200000900CF0BDFF80464046BDE8F8832DE9E4
:10223000F84304460D4616461F46DDF82080DFF8B9
:102240003C943B46324629462046CDF800800CF0AF
:102250006EFF81464846BDE8F8832DE9F047044605
:102260008846154626464FF00009C2462F4641F2E1
:10227000FC408059C0F30D408100F81DB1EBD00F38
:1022800002D2FE48C01C0CE04FEA095040EA0A4066
:10229000791E40EA01031222002130460EF026FA90
:1022A0000020BDE8F0872DE9F04107460C461546B1
:1022B0001E464FF000084FEA085040EA043040EA5A
:1022C000051040EA06033722002138460EF00EFAC8
:1022D00000BFBDE8F0812DE9F04104460D461646E9
:1022E0001F4600BF204600F001FC0528FAD245F049
:1022F000E04141F24800015106510751BDE8F0812B
:102300002DE9F04104460D4616461F4600BF204603
:1023100000F0ECFB0528FAD2082D09D100BF00BF60
:1023200000BF4FF486500059C00F0028F9D109E0D2
:1023300000BF00BF00BF41F2D0000059C00F00280D
:10234000F9D100BF45F0E24141F248000151065188
:102350000751BDE8F0812DE9F04107460C461546CE
:102360001E4600BF384600F0C1FB0728FAD24FF0E6
:10237000804040EA064040EA0430284341F24801E8
:10238000C851BDE8F081F8B506460C46002704F0B8
:102390000F0008B9200902E0012000EB1410C7B2B9
:1023A000B74B0022B749B848FFF728FF0546002D74
:1023B00014D1B6A0FFF738F8B1483346BC4A002123
:1023C0000090B148FFF733FF05461DB9B9A0FFF7EC
:1023D0002BF806E0BDA0FFF727F802E0C2A0FFF748
:1023E00023F8CAA0FFF720F810213046FFF7E9F8DC
:1023F000CBA0FFF719F81021A248FFF7E2F8CBA015
:10240000FFF712F81021AA48FFF7DBF89C499E4815
:1024100000F07AFBF8BDF8B507460C46002604F03C
:102420000F0008B9200902E0012000EB1410C6B229
:10243000934B002293499448FFF7E0FE002510E0FB
:102440008F4800909A48102101FB0503BC4801FB0E
:10245000050201218C48FFF7EAFE8B4800F04DFB96
:102460006D1CB542ECDBB7A0FEF7DEFF1021B448CF
:10247000FFF7A7F88249844800F046FBF8BD2DE934
:10248000FE4F814CB44D01260027B0464FF0FF3976
:10249000DFF8E8A13B46324629462046CDE90089CF
:1024A0000EF064F8824600BF02ADAC4E05274FF037
:1024B000FF38DFF8C8913B46324629462046CDF822
:1024C00000800EF066F8814600BFA5A0FEF7ACFFC5
:1024D000042102A8FFF775F8A5A0FEF7A5FFBDE847
:1024E000FE8F2DE9F04391B02022A7A101A828F08A
:1024F000B6FF654C994D062609AF4FF00208DFF88C
:102500007C913B46324629462046CDF800800EF0AD
:10251000D5FE814600BFA4A0FEF786FF202109A8B2
:10252000FFF74FF8A4A0FEF77FFF202101A8FFF7D7
:1025300048F811B0BDE8F08308B5002000906A4665
:10254000FF21514800F0EBFA9EA0FEF76DFF042139
:102550006846FFF736F86A464FF6FF714A4800F0C2
:10256000DEFA9CA0FEF760FF04216846FFF729F819
:102570006A466FF07F41444800F0D1FA99A0FEF717
:1025800053FF04216846FFF71CF86A464FF0FF31FD
:102590003D4800F0C4FA98A0FEF746FF04216846C3
:1025A000FFF70FF86A464FF0FF31374800F0B7FAEF
:1025B00091A0FEF739FF04216846FFF702F808BD35
:1025C0002DE9F04F8DB091A2D2E901311068D268A7
:1025D000CDE90A310C92099090A3D3E90020D3E908
:1025E000021306AC0BC405920524062507264FF0FE
:1025F000000900200090012000BF00BF082803D37D
:1026000000BF01BE00BF00BF00BF01218140874A5B
:10261000516000BF4FF4805285491B480EF0F0F81E
:1026200000BF8448D0F88404814617480EF03BF977
:1026300080B20090144FC8464FF0000ADDF800B099
:102640005B465246414638460EF044FA00BF8022AF
:1026500021463846FFF701FE802229463846FFF71B
:10266000FCFD802231463846FFF7F7FD802309AA9A
:10267000214638460EF01CFF8023DDE00A003200C0
:10268000C45E00080C4C0008000010400D0A4352C4
:102690005950544F2041455320496E7469616C690B
:1026A0007A6174696F6E20446F6E650D0A000000D8
:1026B000D85E00080D0A43525950544F20414553EB
:1026C0002045434220446F6E650D0A000D0A4352B7
:1026D0005950544F2041455320454342204661699B
:1026E0006C65640D0A0000000D0A43525950544FA6
:1026F0002041455320496E697469616C697A61743F
:10270000696F6E204572726F720D0A000D0A496E74
:10271000707574204D6573736167653A0900000038
:102720000D0A414553204B45593A09000D0A456EA3
:1027300063727970746564204D73673A0900000014
:102740003C5F00080D0A446563727970746564200B
:102750004D73673A09000000B71DC104A84B00087B
:1027600043524320526573756C743A0900000000AF
:1027700045787065637465643A2030783343343645
:10278000383741460D0A000001DA961832FA9726CA
:1027900066EFA49D485FB29D97D74418324C48C954
:1027A0009C0D977120E377515348413235362048CC
:1027B0006173683A09000000457870656374656468
:1027C0003A0900004D6178206F6620307846463A1D
:1027D000090000004D6178206F662030784646463B
:1027E000463A09004D6178206F66203078464646AB
:1027F0004646463A090000004D6178206F66203059
:102800007846464646464646463A090001020304D3
:1028100005060708090A0B0C0D0E0F00101010100A
:1028200010101010101010101010101080063140F1
:10283000008010400010104005AA294638460EF0CE
:1028400037FE802301AA314638460EF031FE00BF24
:102850004FF000084FEA085040EA063040EA041002
:1028600040EA05033622002138460DF03FFF00BF45
:1028700000BF8023324601A938460EF048FE2B46A1
:10288000224631463846FFF70EFD8023324601A925
:1028900038460EF03CFE23462A4631463846FFF7BE
:1028A00002FD8023324601A938460EF030FEB148C1
:1028B0000068401CAF49086008460068FF2808D936
:1028C00008460268ACA103200EF0EAFF0020A949E7
:1028D0000860012000BF00BF082803D300BF01BE6D
:1028E00000BF00BF00BF01218140AA4A916000BF24
:1028F0000DB0BDE8F08F30B585B0A74800F01EF9E7
:10290000A64DA74C4FF00040A64908600846456018
:1029100080040862084644620120A3490860A14976
:10292000C1F82001A1A0FEF77FFD9E48803000681D
:102930000490042104A8FEF744FE4FF0E840A149AA
:1029400088644FF47A7017F010FE9FA0FEF76CFDBC
:102950009448D0F880000490042104A8FEF731FECA
:1029600010239F4A08218C48FFF7CAFC10236A46AF
:102970000C218948FFF7AFFC10230822002186486C
:10298000FFF7E9FC844800F0E7F8102301220C214E
:102990008148FFF7E0FC804800F0AFF891A0FEF717
:1029A00043FD10216846FEF70CFE92A0FEF73CFDA9
:1029B00010219448FEF705FE774800F0BFF87BA091
:1029C000FEF732FD7748803000680490042104A8A7
:1029D000FEF7F7FD8C487B4988644FF47A7017F056
:1029E000C4FD79A0FEF720FD6E48D0F88000049069
:1029F000042104A8FEF7E5FD1023794A0821664862
:102A0000FFF77EFC10236A460C216348FFF763FC46
:102A10001023082200216048FFF79DFC5E4800F06B
:102A20009BF8102301220C215B48FFF794FC5A48C5
:102A300000F063F86BA0FEF7F7FC10216846FEF784
:102A4000C0FD6CA0FEF7F0FC10217048FEF7B9FD48
:102A5000514800F073F84FF0FF306D4908606DA0E9
:102A6000FEF7E2FC4C48D0F800010490042104A8D1
:102A7000FEF7A7FD6BA0FEF7D7FC00204A490860CF
:102A80004849C1F820016DA0FEF7CEFC4FF0E840A8
:102A90004C4988644FF47A7017F067FD6FA0FEF719
:102AA000C3FC5B4800680490042104A8FEF789FD7C
:102AB00039480DF024FF05B030BD10B500BF3648D1
:102AC0000068012181EAD07080F0010030B16CA172
:102AD00003200EF0E5FE30480DF03AFF2E480DF0D1
:102AE0000EFF4FF0FF304A49086010BD014641F229
:102AF0004400405800F00F00704700BF41F204014D
:102B000009580029FAD1704770B504460D46654E44
:102B1000294620460CF0EEFD0646304670BD2DE9F4
:102B2000F04104460D4616465E4F32462946204681
:102B30000EF0CDF807463846BDE8F08110B50446E2
:102B400000BF2046FFF7D2FF0728FAD24FF0C84156
:102B500041F24800015110BD10B5044600BF2046A7
:102B6000FFF7C4FF0728FAD24FF0A04141F2480016
:102B7000015110BD1C4C0008496E666F3A4150501F
:102B80003A2578205655204F505320444F4E450D3E
:102B90000A0000008006314000001040B8B6021064
:102BA000C8B6021000201040002110405374617418
:102BB0007573206265666F7265204C4F41445F4BB0
:102BC00045593A00001010405374617475732061C8
:102BD00066746572204C4F41445F4B45593A200062
:102BE000A84B00084F7574707574206D6573736120
:102BF00067653A00456E63727970746564206D652F
:102C000073673A00204C000801000074304C000843
:102C1000000110400A494E54522076616C75653AA5
:102C20000000000044697361626C696E6720414C6A
:102C30004C4F574544206269740D0A005065726616
:102C40006F726D204C4F41445F4B4559206F70654A
:102C5000726174696F6E0D0A00000000496E746540
:102C6000727275707420494E5354525F4445565FDA
:102C70004B45595F4552524F52207365740D0A00FF
:102C8000496E666F3A4150503A43525950544F2062
:102C90004D6F64756C6520456E61626C6564200DD6
:102CA0000A0000000A00320000280DDB00BF00BF50
:102CB00000F01F02012191404209920002F1E0223E
:102CC000C2F8001100BF00BF704710B5F948006896
:102CD00040F00100F849C1F85C01012017F045FC03
:102CE000F548D0F85C0140F01000F349C1F85C01F0
:102CF0000846D0F85C0120F00200EE490860EF4879
:102D0000C06B40F00041ED48C163C06A40F0004133
:102D1000EA48C162142017F028FCE848806B40F0B4
:102D20000041E648816302E0012017F01EFCE34801
:102D3000406C00F020000028F6D0E048406C40F0E5
:102D40002001DE484164006840F08040DB490860B3
:102D5000282017F00AFC42F2107016F05CFC10B14B
:102D6000D7A0FEF761FBD548406B40F48071D34893
:102D70004163406B40F00041D048416302E00120D4
:102D800017F0F3FBCD48406C00F040000028F6D06F
:102D9000CA48406C40F04001C8484164406940F472
:102DA0000071C6484161082017F0DFFBC348406945
:102DB00040F48071C148416102E0012017F0C0FB7E
:102DC000BE48406C00F001000028F6D0BB48406CC3
:102DD00040F00101B9484164012017F0C6FBB74833
:102DE000006840F00040B54908600846C06840F0FF
:102DF0008001B248C16010BD38B5B448B44908601C
:102E000000200346B34AB4490090B44800F08EFE57
:102E100005460DB1002038BD4FF40071B04803F0F5
:102E200017FB04460CB10020F5E74FF45022AD49E2
:102E3000AD4801F07FFA04460CB10020EBE7AA4B45
:102E4000A74AA449A94801F0C5FE04460CB10020D8
:102E5000E1E70120DFE770B504460D461646A4A061
:102E6000FEF7E2FA70BD1CB50446ACB9A44BA54A06
:102E700021469A480FF0C3FF002000900346024607
:102E800001460190954811F0B7FE9D4B9E4A2146A0
:102E900092480FF043FF14E0994B9C4A21468F481B
:102EA0000FF0ADFF002000900346012203210190A6
:102EB0008A4811F0A1FE924B954A214687480FF0AF
:102EC0002DFF1CBD70B504460D46082D09D124B94F
:102ED00090A103200EF0E4FC03E094A103200EF087
:102EE000DFFC092D09D124B996A103200EF0D8FCEE
:102EF00003E09AA103200EF0D3FC0A2D09D124B9D6
:102F00009CA103200EF0CCFC03E0A0A103200EF056
:102F1000C7FC70BD10B504461CB9A2A103200EF079
:102F2000BFFC012C03D1A5A103200EF0B9FC10BDFC
:102F30007FB505460C462079012141EA40006179C0
:102F400040EA8100A17940EA0110618940EA01204C
:102F5000E17940EA01500090207A616940EA01304D
:102F60000190E0680290206903902968A06901EB54
:102F70000010206010226946206828F02BFAA06912
:102F8000401CA0617FBD70B5044603290ED103200B
:102F900000BF00BF082803D300BF01BE00BF00BFB1
:102FA00000BF012585408B4E756000BF70BD2DE9C7
:102FB000FE4306460D4617469846022D33D18648F5
:102FC0000068401C844908606946304602F092FE61
:102FD00004462CBB6946304602F04AFF7F48007821
:102FE000072803D100207D49087004E07B48007861
:102FF000401C7A490870032000BF00BF082803D393
:1030000000BF01BE00BF00BF00BF01218140714A67
:10301000916000BF72480068401C7149086002E07E
:1030200070A0FEF701FABDE8FE8310B50121294822
:1030300001F04CF910BD10B50221264801F046F907
:1030400010BD10B52E49254812F0AFF810BD30B5AF
:103050008BB000241C22664901A828F000FA08A9B8
:10306000644802F047FE054635B12A4662A10320B6
:103070000EF016FC00BFFEE70898019001208DF8C5
:10308000080001A908A8FFF753FF00208DF80800E9
:10309000002404E001A908A8FFF74AFF641C0A2CD9
:1030A000F8D380208DF80C004C480078082800D216
:1030B000AEE0D5E05C91434000904340009843402F
:1030C00045434F204661696C0D0A000010001081D5
:1030D00000006440A05F00080000684000006C40F1
:1030E000CC5F00080000031CD0610008E461000808
:1030F00046534D5F496E746572727570740D0A00A7
:10310000B04C00086C4C0008D0B90210804C00088C
:10311000E4BC0210496E666F3A4150503A50305F3D
:103120004C315F457869740D0A000000496E666F86
:103130003A4150503A50315F4C315F457869740DD7
:103140000A000000496E666F3A4150503A50305FB5
:103150004C315F456E7472790D0A0000496E666FDE
:103160003A4150503A50315F4C315F456E7472793C
:103170000D0A0000496E666F3A4150503A50305F78
:103180004C335F456E7472790D0A0000496E666FAC
:103190003A4150503A50315F4C335F456E7472790A
:1031A0000D0A0000496E666F3A4150503A50305F48
:1031B0004C335F457869740D0A000000496E666FF4
:1031C0003A4150503A50315F4C335F457869740D45
:1031D0000A00000000033140604C0008584C000811
:1031E0005C4C0008444D414275664572720D0A0000
:1031F00000BD02105C630008496E666F3A41505092
:103200003A436F6D6D4661696C2025780D0A0000A8
:10321000DFE800F004090D1115191D216FF07F2062
:10322000049005901DE0EF480490059019E0EE48E9
:103230000490059015E0ED480490059011E0EC48ED
:10324000049005900DE0EB480490059009E0EA48F1
:103250000490059005E04FF080200490059000E078
:1032600000BF00BF002404E001A908A8FFF760FE2A
:10327000641C282CF8D3EF208DF80C0001A908A8B5
:10328000FFF756FE01208DF809008DF80C00002094
:10329000ADF80E0001A908A8FFF74AFE079800053F
:1032A000000CADF8260008A9D44802F068FD20B94A
:1032B000D3480068401CD24908600BB030BD10B53F
:1032C000D04802F0B3FBCD4802F0B0FB10BD10B502
:1032D0000021CC4802F075FC0021C84802F071FCC6
:1032E00010BD10B588B02022C749684628F0B7F84D
:1032F0006A46C449C54802F00FFA04462CB1C4A07E
:10330000FEF792F8002008B010BD02208DF80800EA
:1033100051208DF80C0021208DF80E00AFF299306D
:1033200005906A46B549B94802F0F6F9044624B159
:10333000BAA0FEF779F80020E5E70120E3E7BA48F4
:103340004FF4E141095800224FF4E1410A5047F29D
:103350007411095847F274110A504FF4F141095899
:103360004FF4F1410A5047F67411095847F67411A9
:103370000A50AE4A47F234210A50091D0A50091D6D
:103380000A50091D0A50091D0A50091D0A50091D3D
:103390000A50091D0A50091D0A5047F25C210A50C3
:1033A000091D0A50091D0A50091D0A50091D0A501D
:1033B000091D0A5047F290210A5047F298210A50FD
:1033C00047F634210A50091D0A50091D0A50091DEB
:1033D0000A50091D0A50091D0A50091D0A50091DED
:1033E0000A50091D0A5047F65C210A50091D0A506F
:1033F000091D0A50091D0A50091D0A50091D0A50CD
:1034000047F690210A50091D0A50091D0A507047BD
:103410001CB5FFF794FF8C20ADF80000012001904F
:10342000AFF2F931684617F04CF88C20FFF73CFCFE
:103430008D20ADF80000AFF20141684617F041F869
:103440008D20FFF731FC8720ADF8000000200190AF
:10345000AFF21141684617F034F88720FFF724FCDB
:10346000FFF733FCFFF7C8FC71A0FDF7DDFF1CBDC3
:1034700010B573497348C0F8F0107348C0F8F010E5
:103480000020FFF7F0FC0120FFF7EDFC002066496B
:10349000086200BF00BF6548401E086000BF0023EF
:1034A0001A461946604811F035FC00231A460121DE
:1034B0005D4811F02FFC00206449087064490860E1
:1034C0004F49086063490860FFF70BFFFFF7FFFEF5
:1034D000FFF7BDFD5448012101EB410300F5805287
:1034E00002EB0332D2F8002242F4006301EB410404
:1034F00000F5805202EB0432C2F8003200BF10BD6A
:1035000010B54949012000EB400301F5805202EB60
:103510000332D2F8002222F4006300EB400401F5EC
:10352000805202EB0432C2F8003200BF00BF00201C
:103530003D49A831086000BF3B48D0F8240420F082
:1035400000413948C0F82414D0F8240A20F0004182
:103550003548C0F8241AFFF7B2FE01220021324894
:1035600011F034FC012211462F4811F02FFC0021EC
:103570003948C0F800123948C0F800122A4840689B
:10358000C0B22949486008468068C1B226488160B7
:1035900000BF00202449086000BF00212948C0F86E
:1035A000F0102948C0F8F01010BDFFF761FF9AE055
:1035B0002B48007820B1012868D0022870D178E02B
:1035C00028A104200EF06CF90D4800682049096814
:1035D000884201D1FFF73BFD1E4800680A2854D9F4
:1035E0004AE00000FF00FF94C8BFC81ACA55CA4A83
:1035F000969F96F34C544CFF40D3409E5C6300086A
:10360000644C0008146300081CBD0210E46100084B
:103610005448302F534F43300D0A00005448332F85
:10362000534F4331370D0A0000006C400400008006
:103630004842444D41496E6974446F6E650D0A00FD
:103640000100001E00FF6D4000FF6E40584C000856
:103650005C4C0008604C000800406C4000106C405E
:10366000CC4C0008543A4150503A4C5644532054E4
:1036700061736B0D0A0000001BA104200EF010F90D
:10368000FFF73EFF01202149087028E020A1042017
:103690000EF006F90021244800F078F840B100E06F
:1036A0001CE022A104200EF0FBF80220174908704C
:1036B00015E027A104200EF0F3F801211A4800F0CC
:1036C00065F850B128A103200EF0EAF800200F4958
:1036D0000870FFF715FFFFF7CBFE00E000BF00BF4B
:1036E000642024F0ACFC63E7543A4150503A5377DD
:1036F0006974636820746F204C56445320504859B5
:1037000030207461736B0D0A00000000CC4C00087F
:10371000543A4150503A4C56445320504859302066
:103720005461736B0D0A000000006C40543A415024
:10373000503A53776974636820746F204C56445331
:103740002050485931207461736B0D0A000000004D
:10375000543A4150503A4C56445320504859312025
:103760005461736B0D0A0000496E666F3A41505008
:103770003A53776974636820746F204C5644532021
:103780004C50424B207461736B0D0A0070B50546B6
:103790000C4600260020D34908600021D148001DB6
:1037A00040F8241005F5E04000EBC420D0F81002EA
:1037B00000F0100070B9002000BF00BF082803D33C
:1037C00000BF01BE00BF00BF00BF01218140C64A4B
:1037D000916000BFC3480068C4490843C1490860FC
:1037E000081D50F8240040F203110843BD49091D8B
:1037F00041F8240005F5E04000EBC420D0F8300289
:1038000040F0010105F5E04000EBC420C0F83012A3
:1038100005F5E04000EBC420D0F8280240F4001188
:1038200005F5E04000EBC420C0F8281205F5E040A3
:1038300000EBC420D0F8080240F03C0105F5E04060
:1038400000EBC420C0F808120A2016F08EFE05F521
:10385000E04000EBC420D0F8300140F0010105F554
:10386000E04000EBC420C0F830110A2016F07DFEC5
:10387000002613E005F5E04000EBC42000F5A4703D
:1038800050F8260040F0030105F5E04000EBC420AD
:1038900000F5A47040F82610701CC6B20A2EE9DBB1
:1038A000182105F5E04000EBC420C0F844110A20BF
:1038B00016F05BFE05F5E04000EBC420D0F8740183
:1038C000002105F5E04000EBC420C0F8741105F5B7
:1038D000E04000EBC420D0F8000140F0010105F504
:1038E000E04000EBC420C0F800110A2016F03DFEB5
:1038F00005F5E04000EBC420D0F838017C490843CE
:1039000005F5E04101EBC421C1F8380105F5E040BF
:1039100000EBC420D0F83C0140F4606105F5E040C4
:1039200000EBC420C0F83C110A2016F01EFE05F57D
:10393000E04000EBC420D0F838016E49084305F59B
:10394000E04101EBC421C1F838010A2016F00DFE58
:1039500005F5E04000EBC420C06840F0010105F52A
:10396000E04000EBC420C160002611E005F5E04016
:1039700000EBC420143050F8260040F0040105F597
:10398000E04000EBC420143040F82610701CC6B292
:103990000C2EEBDB062016F0E8FD05F5E04000EB11
:1039A000C420D0F8080240F0030105F5E04000EB28
:1039B000C420C0F8081205F5E04000EBC420D0F8A0
:1039C000040240F0430105F5E04000EBC420C0F8DC
:1039D000041240F2391105F5E04000EBC420C0F8B4
:1039E0002412322016F0C1FD05F5E04000EBC420A2
:1039F000D0F81032224640A103200DF051FF4FF4C1
:103A0000B27105F5E04000EBC420C16305F5E0406C
:103A100000EBC420D0F8080240F03C0105F5E0407E
:103A200000EBC420C0F8081205F5E04000EBC4200C
:103A3000D0F8080240F0030105F5E04000EBC42097
:103A4000C0F8081205F5E04000EBC420D0F80802E9
:103A500020F4407105F5E04000EBC420C0F80812E6
:103A60000A2016F082FD05F5E04000EBC420D0F8F6
:103A7000100200F0100080B1002000BF00BF082835
:103A800003D300BF01BE00BF00BF00BF01218140C2
:103A9000154A516000BF012070BD0020FCE71148AD
:103AA00047F23811095841F0040247F238110A5020
:103AB00047F63811095841F0040247F638110A5008
:103AC00047F24411095841F0100247F244110A50DC
:103AD00047F64411095841F0040247F644110A50D0
:103AE0007047000000006C4000023140030000807D
:103AF000001C390084080004496E666F3A4150503A
:103B00003A506F7274206E6F203D2025642050481B
:103B1000595F47454E4552414C5F535441545553AC
:103B20005F32203D20307825580D0A002DE9F05FE6
:103B300006460F4614469846DDF828B04FF0000AB6
:103B400014B9DFF80CA47FE096B3012084F82900B3
:103B500006F5C030206006F5803000F57F406060DB
:103B600006F52030A06006F5003000F57F40E060EB
:103B7000F8486168C1F8F000E168C1F8F00000257C
:103B800014E0206800EBC510C06820F000402168F8
:103B900001EBC511C860A06800EBC510C06820F03B
:103BA0000040A16801EBC511C8606D1C102DE8D361
:103BB000002F49D0012084F8280007F5C03020618B
:103BC00007F5803000F57F406061E2486169C1F827
:103BD000F00000250AE0206900EBC510C06820F065
:103BE0000040216901EBC511C8606D1C102DF2D396
:103BF00007F52030A06107F5003000F57F40E06157
:103C0000D448E169C1F8F000B8F1000F0DD040EAE6
:103C100008390A2016F0A9FCE069C0F8F0904A467D
:103C2000CDA103200DF03CFE00BF00250AE0A069F5
:103C300000EBC510C06820F00040A16901EBC51180
:103C4000C8606D1C102DF2D35046BDE8F09F0028CF
:103C500050D090F828202AB300210AE0026902EB34
:103C6000C112D26822F00042036903EBC113DA608B
:103C7000491C1029F2D300224369C3F8F020002127
:103C80000AE0826902EBC112D26822F00042836925
:103C900003EBC113DA60491C1029F2D30022C36977
:103CA000C3F8F02090F82920FAB1002114E002684E
:103CB00002EBC112D26822F00042036803EBC11389
:103CC000DA60826802EBC112D26822F00042836897
:103CD00003EBC113DA60491C1029E8D300224368C2
:103CE000C3F8F020C368C3F8F020002280F8282031
:103CF00080F82920704730B50346002011B1B3F594
:103D0000805F01D3924818E04FF0E05404EB0312B7
:103D10009C4C246844F400349A4D2C6000BF994CAC
:103D2000246804F40034002CF9D114680C60546841
:103D30004C6094688C60D468CC6030BD2DE9F04153
:103D400006460C46002714B1B6F5805F05D38EA158
:103D500001200DF0A5FD7E4F0FE04FF0E05000EB8D
:103D600006152068286060686860A068A860E06840
:103D7000E860BFF35F8FBFF34F8F3846BDE8F08137
:103D800010B5024600201F2904DCA1F110031468BD
:103D900004EBC310202906DB2F2904DCA1F120034A
:103DA000946804EBC310402906DB4F2904DCA1F121
:103DB0004003146904EBC310302906DB3F2904DCFF
:103DC000A1F13003946904EBC31010BD2DE9F0415B
:103DD00007460E4614464FF00008002577B16CB137
:103DE0002F2E0EDD402E01DB4F2E0ADD302E01DBA3
:103DF0003F2E06DD512E04D0502E02D0DFF8508128
:103E00001FE031463846FFF7BBFF054600BF1DB92E
:103E100000BF01BE00BF00BF00BF28682060686807
:103E20006060A868A060E868E0602869206168694F
:103E30006061286AA061696AE161A96A2162E96A30
:103E400061624046BDE8F0812DE9F04107460C462D
:103E500016464FF00008002577B16EB12F2C0EDD0D
:103E6000402C01DB4F2C0ADD302C01DB3F2C06DD22
:103E7000512C04D0502C02D0DFF8D48019E0214618
:103E80003846FFF77DFF054600BF1DB900BF01BEE4
:103E900000BF00BF00BF3068286070686860002005
:103EA000A860401E2861B06868613E49F06808401B
:103EB000E8604046BDE8F0812DE9F04707460C4632
:103EC000164698464FF0000900256FB12F2C0EDDE5
:103ED000402C01DB4F2C0ADD302C01DB3F2C06DDB2
:103EE000512C04D0502C02D0DFF8649015E021460C
:103EF0003846FFF745FF054600BF1DB900BF01BEAC
:103F000000BF00BF00BFB8F1000F03D068693043A5
:103F1000686102E06869B04368614846BDE8F087BF
:103F20002DE9F04106460C46002700256EB12F2CE6
:103F30003ADD402C01DB4F2C36DD302C01DB3F2CF1
:103F400032DD512C30D0502C2ED0014F42E00000F9
:103F5000010002020100001E496E666F3A48624489
:103F60006D613A53657474696E67205553425F45BD
:103F700047525F414441505F4354524C3D25780DB8
:103F80000A000000000064404572723A4862446DC5
:103F9000613A53657444657363204572726F720DA4
:103FA0000A000000FF07E02F21463046FFF7E8FE39
:103FB000054600BF1DB900BF01BE00BF00BF00BF66
:103FC000E86840F00040E86000BFE86800F4801056
:103FD0000028FAD03846BDE8F0812DE9F0410646C8
:103FE0000C46002700256EB12F2C0DDD402C01DB87
:103FF0004F2C09DD302C01DB3F2C05DD512C03D08B
:10400000502C01D0C84F18E021463046FFF7B8FECB
:10401000054600BF1DB900BF01BE00BF00BF00BF05
:104020004FF0FF302861E86820F01040E86000BFE2
:10403000E86800F480100028FAD13846BDE8F08125
:1040400010B50346B84813B119625A62002010BD7A
:104050000246002092B1012906D0022906D0032988
:1040600006D0042908D105E0506806E0D06804E0D5
:10407000506902E0D06900E000BF00BF704702460F
:104080002F2A0BDD402A01DB4F2A07DD302A01DB16
:104090003F2A03DD512A01D0502A02D1502A00DAEA
:1040A00009B9A1487047402A04DB4F2A02DCA2F17B
:1040B0004000C3B2302A04DB3F2A02DCA2F1200018
:1040C000C3B2102A04DB2F2A02DC02F11000C3B2B3
:1040D0000B700020E6E702462F2A0BDD402A01DBA9
:1040E0004F2A07DD302A01DB3F2A03DD512A01D0A8
:1040F000502A02D1502A00DA09B98B487047402A69
:1041000004DB4F2A02DCA2F12000C3B2302A02DB1A
:104110003F2A00DCD3B2102A04DB2F2A02DC02F192
:104120003000C3B20B700020E8E72DE9F0410546EE
:104130000C4616464FF0000800277DB12F2C0BDDF2
:10414000402C01DB4F2C07DD302C01DB3F2C03DD45
:10415000512C01D0502C01D1502C02DBDFF8C8814A
:104160000CE021462846FFF70BFE074600BF1FB9AB
:1041700000BF01BE00BF00BF00BFFE674046BDE8F4
:10418000F0812DE9FC4104460D4616461F46DFF836
:10419000988114B301A93046FFF771FFE8B9694669
:1041A0002846FFF798FFC0B93FB99DF800105F4857
:1041B0009DF8042040F822100DE05C489DF80410A2
:1041C00050F821009DF8001040EAC11157489DF8B1
:1041D000042040F822104FF000084046BDE8FC8162
:1041E0002DE9F04704460E464FF0000900BF6CB1C0
:1041F0002F2E0FDD402E01DB4F2E0BDD302E01DB8D
:104200003F2E07DD512E05D0502E03D000BF01BE3A
:1042100000BF00BF00BF31462046FFF7B1FD074693
:104220003969786901EA0005002D4CD03D61386894
:104230001FFA80F8206A002845D005F0010030B14F
:10424000424600213046D4E908C3E047814605F0E4
:10425000020030B1424601213046D4E908C3E047AC
:10426000814605F0100030B1424602213046D4E9C3
:1042700008C3E047814605F0200030B142460321E3
:104280003046D4E908C3E047814605F0400030B12C
:10429000424604213046D4E908C3E047814605F090
:1042A000800030B1424605213046D4E908C3E047DA
:1042B000814605F4806030B1424606213046D4E99B
:1042C00008C3E04781464846BDE8F0872DE9F0473E
:1042D00080460E46DFF850A0B8F1000F21D0042E22
:1042E0001FDC31464046FFF7B3FE0546CDB12F68CF
:1042F000AFB1002410E00120A040384058B10C4874
:10430000805D04EB001000F0FF0949464046FFF7CE
:1043100067FF00B102E0641C102CECD300BF4FF02B
:10432000000A5046BDE8F0870100020280046440A4
:104330003CBD02102DE9F05F04460F4615464FF0D4
:10434000000B1CB1B7F1E05F00D315B9DFF854B230
:1043500031E0B94607EB050A05F2FF70C60A09EB22
:10436000860909F13F0020F03F09AAEB090525F075
:104370003F05A760C4F800906560E66000202061FA
:10438000B100A06827F0C7F84FEA951810E04FEA8F
:104390005811A06850F8210008F01F020121914037
:1043A00008434FEA5812A16841F8220008F10108B9
:1043B000B8EB461FEBD35846BDE8F09F70B50446F6
:1043C0000E4600250CB9774D03E01421204627F056
:1043D000A2F8284670BD2DE9F0410C461F46610940
:1043E00004F01F05AB18202B00D92023202B02D16D
:1043F0004FF0FF3C05E04FF0010C0CFA03FCACF170
:10440000010C66464FF0010C0CFA05FCACF1010CF6
:10441000A6EB0C0628E057B1D0F808C05CF821C024
:104420004CEA060CD0F8088048F821C009E0D0F822
:1044300008C05CF821C02CEA060CD0F8088048F8C7
:1044400021C0491CA3EB050CA2EB0C02202A03D3CC
:10445000002520236E1E07E0002513464FF0010CB7
:104460000CFA02FCACF10106002AD4D1BDE8F081BF
:104470002DE9F84F04460E464FF0000AB3460020DF
:104480000090206818B1606808B1A06810B9009861
:10449000BDE8F88FBBF1400F01D8022002E00BF11C
:1044A0003F00800986B225690027B846B94623E057
:1044B000A06850F825000121B940084070B9B8F152
:1044C000000F03D107EB451000F1010A08F10108C4
:1044D000701C80B2404503D1256110E04FF0000808
:1044E0007F1C202F08D100276D1C09F10109E0680D
:1044F000A84201D10025A846E0684845D8D800BFA9
:10450000701C80B2404509D1721E012351462046DD
:10451000FFF761FF206800EB8A1000900098B7E772
:104520002DE9F04704460E464FF0000A1CB116B1C3
:104530002068B04202D9DFF86CA02FE03546206831
:10454000A8422BD2D4E900010844A84226D9206809
:10455000281A85096F0905F01F084FF0000909E0C6
:1045600009F1010908F10108B8F1200F02D14FF05B
:1045700000087F1CE068B84208D9A06850F82700FE
:10458000012101FA08F108400028E9D100234A4638
:1045900029462046FFF71FFF002020615046BDE856
:1045A000F087000001000602FE4870472DE9F04147
:1045B00088B080460C46154600200590069007906E
:1045C000002704F11C0030F8156001A93046FFF700
:1045D00092FB049800F0080048B3019800F00040F6
:1045E00028BB019820F0004005904FF6F071049828
:1045F0000840ADF818000498000CADF81A000498B3
:1046000000F00F00ADF81C000398010C04F11C0031
:1046100020F8151005AA02212046D4E90DC3E04771
:104620000DB9012000E0002084F83F000127384642
:1046300008B0BDE8F08130B5024600BF6AB12F294D
:104640000FDD402901DB4F290BDD302901DB3F293C
:1046500007DD512905D0502903D000BF01BE00BF9E
:1046600000BF00BF0C0901F00F03601E02F11C0522
:1046700005EB801050F8230030BD2DE9F04796B0CF
:1046800006460F4697F8008000200490059006909B
:10469000002506B137B9C4A101200DF001F916B00B
:1046A000BDE8F08741463046FFF7C5FF04462CB908
:1046B0004246C4A101200DF0F3F8F0E7786807281E
:1046C0006FD2DFE800F0046FFDFCFBFAF900E0793F
:1046D000012804DD207B404501D0012500E00025B4
:1046E00000BF04F11C0030F8159069464846FFF7FA
:1046F00002FB039800F0080018B1009800F0004099
:1047000000B14CE0E079012809DD94F83F00A842AF
:1047100005D094F83E00401C84F83E003FE000982D
:1047200020F0004004904FF6F07103980840ADF877
:1047300014000398000CADF81600039800F00F0069
:10474000ADF818000298010C04F11C0020F81510B7
:1047500004AA02212046D4E90DC3E047E0790128EC
:1047600016DD0DB9012000E0002084F83F0094F828
:104770003E0000280CDD0DB9012000E000200246BB
:1047800021463046FFF712FF10B9002084F83E00A2
:1047900004F11C0030F81500B9688842A1D100BFAF
:1047A00004E202E2207A012804DDA07B404501D02A
:1047B000012500E0002500BF04F1200030F815902D
:1047C00069464846FFF797FA039800F0080000B1E1
:1047D000A9E004F14200405D40B104F14200405DB7
:1047E000401EC1B204F14200415502E0A07900B977
:1047F00099E0029881B204F1200020F81510207988
:1048000010B9A079002875D1208D6946FFF773FA99
:10481000019800F00F00F022019902EA111140EA1C
:10482000010A207A012801D0D0456FD1009820F0EC
:10483000004000904FF6F071039808400390208DDF
:104840006946FFF77BFA207968B9019AC2F30342FF
:104850004FF0F00C019B0CEA135342EA03010022D3
:104860003068FFF762FCE079012802DD02982085BC
:1048700002E00298000C2085002203212046D4E9A2
:104880000DC3E047207A012845DD94F83E0088B347
:1048900094F83E00401E84F83E00208D6946FFF7E4
:1048A0002AFA009820F0004000904FF6F07103982B
:1048B00008400390208D04E061E049E041E034E0ED
:1048C000B0E06946FFF73AFA207968B9019AC2F375
:1048D00003424FF0F00C019B0CEA135342EA030130
:1048E00000223068FFF721FCE079012803DD0298FF
:1048F000208503E00FE00298000C208500220321B0
:104900002046D4E90DC3E04705E0FFE794F83E00F8
:10491000401C84F83E0004F1200030F81500B9680E
:1049200088427FF449AF00BF40E194F8300000F0C6
:10493000200028B1002205212046D4E90DC3E0471C
:1049400034E1002204212046D4E90DC3E0472DE1E3
:1049500094F83C00022803D141463068FFF73DFB44
:10496000012084F83C0094F8300000F0800028B169
:10497000002201212046D4E90DC3E04716E1207949
:10498000012838D1A08C6946FFF7B5F9E0790128F4
:104990002EDD0298A08494F83D0080F0010084F898
:1049A0003D0028E01A0001014572723A4862446DE8
:1049B000613A4E554C4C20706172616D6574657240
:1049C000730D0A004572723A4862446D613A4E6F47
:1049D000206368616E6E656C206D61707065642027
:1049E000746F20736F636B65742025780D0A000067
:1049F0000298000CA0842079022812D1E08C69462C
:104A0000FFF779F9207A012809DD0298000CE0848B
:104A100094F83D0080F0010084F83D0001E0029828
:104A2000E084C3E0A07938B394F83C00042822D194
:104A300007AA41463068FFF7C9F907981FFA80F9BD
:104A400069464846FFF757F90BE04FF6F0710398B7
:104A50000840039069464846FFF770F902984FEA0C
:104A60001049039800F008000028EED100224146CA
:104A70003068FFF75AFB97E0207A012804DDA07B1D
:104A8000404501D0012500E0002504F1200030F868
:104A9000159069464846FFF72EF907AA4146306847
:104AA000FFF794F90A98C0F3C23001287CD100982E
:104AB00000F00040002877D004F14400405DE8B3E6
:104AC00004F10E02515D3068FFF787FA009820F07C
:104AD000004000904FF6F07103980840039069463B
:104AE0004846FFF72BF9029881B204F1200020F824
:104AF000151004F10E02515D07AA3068FFF766F940
:104B000004F1200030F815001290DDE90801401A88
:104B100013900C9814900A9820F05040159004F1CE
:104B20004400405D401EC1B204F144004155405D67
:104B300018B9149820F01000149000E034E004F14B
:104B40000E02515D12AA3068FFF77EF904F10E02E1
:104B5000515D3068FFF7E4F9208D6946FFF7CBF827
:104B6000009820F0004000904FF6F0710398084044
:104B70000390208D6946FFF7E1F8019AC2F30342E2
:104B80004FF0F00C019B0CEA135342EA03010022A0
:104B90003068FFF7CAFAE079012802DD0298208523
:104BA00002E00298000C208500E000BF00BF00BFBB
:104BB00075E52DE9FE4304460D4616461F46B846E8
:104BC00000940195029669464046FFF756FD002085
:104BD000BDE8FE832DE9F04104460D4616461F460A
:104BE00014B10DB106B117B9FB48BDE8F0814FF41F
:104BF0009871204626F08FFC25606660A7602246EB
:104C0000AFF251012846FFF71BFA0020EDE770B51F
:104C100004460D467CB165B9D4F8280148B194F832
:104C20002C01012805D1D4F828118847002084F8E8
:104C30002C01C4F8285170BD70B50446E64EA4B1ED
:104C40000026002508E004F10C0050F8250010B102
:104C5000E14EB61D02E06D1C042DF4D300BF26B951
:104C6000002211462068FFF7EBF9304670BD70B5A1
:104C70000446D94804B310291ED272B1B4F81E51AB
:104C800001268E40B543A4F81E51B4F81E5103FA14
:104C900001F63543A4F81E510DE0B4F81C6101255E
:104CA0008D40AE43A4F81C61B4F81C5103FA01F620
:104CB0003543A4F81C51002070BD70B500BF68B129
:104CC0002F290FDD402901DB4F290BDD302901DBC6
:104CD0003F2907DD512905D0502903D000BF01BE6F
:104CE00000BF00BF00BF0C0901F00F03651E00F1FB
:104CF0001C0606EB851545F8232070BD2DE9FF5FE6
:104D000004460E4617461D46DDE90E8A24E0694634
:104D10003046FEF7F0FFBAF1000F0ED0009860B1F8
:104D2000009820F00049B8F1000F02D00DB1A9EBB6
:104D300005094946A068FFF7F3FBB8F1000F03D05F
:104D400002984FEA104B02E002981FFA80FB3146AE
:104D5000606801F0D4FB5E46381EA7F101018FB2F6
:104D6000D5D1BDE8FF9F2DE9F04F87B004460D4631
:104D700090461E46DDF840B0002734B12DB1B8F1A1
:104D8000000F02D006F00F0018B1934807B0BDE83D
:104D9000F08FC1462946606801F07DFB0746002F71
:104DA0003BD1B5F800A027E0B9F1000F05D006A966
:104DB000606801F070FB074601E0288806905EB14C
:104DC00057B93146A068FFF753FB02900596029849
:104DD00028B9814FFF1C02E0002002900590CDF819
:104DE0000CB0BDF8180040EA0040049002A95046FB
:104DF000FEF7A4FFBDF818A0B9F10000A9F1010168
:104E00001FFA81F9D0D147B1012000900190298883
:104E1000002342462046FFF771FF3846B6E77FB5CC
:104E200006460C462079022826D0002521E004F110
:104E30000C02515D3068FFF7D0F804F1140030F82F
:104E400015000090002001904FF08C60039000202E
:104E5000029004F10C02515D6A463068FEF7F4FFDF
:104E600004F10C00415D22463046FFF726FF681C26
:104E700085B2E079A842DADC2079012826D0002525
:104E800021E004F10E02515D3068FFF7A6F804F14D
:104E9000180030F815000090002001904FF0946049
:104EA00003900020029004F10E02515D6A463068C2
:104EB000FEF7CAFF04F10E00415D22463046FFF7BF
:104EC000FCFE681C85B2207AA842DADC7FBD2DE9A1
:104ED000F04190B006460C469046207902287AD0E0
:104EE000002582E004F10C02515D3068FFF775F88F
:104EF00004F10C02515D01AA3068FEF767FF0198CA
:104F00000C90CDF83480206B20F002000E904FF012
:104F100088600F90A07910B32079E0B9E07901287A
:104F20000FD1002709E004F10E03DA5D217B002395
:104F30003068FFF726F9781C87B2207AB842F2DC95
:104F40000DE0EBB2A27B04F10C0C1CF805103068EC
:104F5000FFF717F903E00E9840F480600E90B8F167
:104F6000000F07D00F9840F400100F900E9840F0FB
:104F7000A0000E90607918B10F9840F000500F908B
:104F800004F10C00405D402814DB04F10C00405D8E
:104F90004F280FDCB6F81C0104F10C01495D4039C3
:104FA00001228A40104028B1617A41F480610F9853
:104FB00008430F9004F10C02515D0CAA3068FEF713
:104FC00043FF04F10C02515D3068FEF7A9FF04F1C4
:104FD0000C00425D02E00CE001000602FEA103208D
:104FE0000F9B0CF05DFC681C85B2E079A8423FF78E
:104FF00079AF207901287DD0207908B94FF00008D9
:10500000002580E004F10E02515D3068FEF7E5FFF7
:1050100004F10E02515D01AA3068FEF7D7FE019837
:105020000C90CDF83480206B20F001000E904FF0F2
:1050300090600F90A07910B32079E0B9207A012810
:105040000FD1002709E004F10C03DA5DA17B0023F6
:105050003068FFF796F8781C87B2E079B842F2DC46
:105060000DE0EBB2227B04F10E0C1CF80510306849
:10507000FFF787F803E00E9840F480600E90B8F1D7
:10508000000F07D00F9840F400100F900E9840F0DA
:10509000A0000E90607918B10F9840F000500F906A
:1050A00004F10E00405D302814DB04F10E00405D79
:1050B0003F280FDCB6F81E0104F10E01495D3039BE
:1050C00001228A40104028B1617A41F480610F9832
:1050D00008430F9004F10E02515D0CAA3068FEF7F0
:1050E000B3FE04F10E02515D3068FEF719FF04F1C2
:1050F0000E0000E00BE0425DC0A103200F9B0CF00E
:10510000CFFB681C85B2207AA8423FF77BAF10B076
:10511000BDE8F081F0B589B0044600272CB1E079F4
:10512000012805DD207A012802DDBD4809B0F0BD67
:10513000E079012878DD00260025A08AADF800007E
:10514000BDF8000001A9FEF7D6FD039880B2ADF8C6
:105150000200BDF8020005A9FEF7CDFDBDF8021062
:10516000E182BDF80210E183A18A6183A18A618492
:1051700000BF85B1607B00F0F00161F31F1001A951
:1051800001EB05114968A74A114041EA004001A915
:1051900001EB0511486085F0010001A901EB001049
:1051A000018901A800EB0510806861F31F4001A987
:1051B00001EB051188602079012814D1208A90B173
:1051C00001A800EB05100068218A084401A901EB41
:1051D00005110860608A0F304FF6F071084001A990
:1051E00001EB0511C86001AA02EB05113DF815009D
:1051F000FEF7A4FD85F0010001A901EB0010008974
:1052000080B22DF8150001AA02EB05113DF815003A
:10521000FEF771FD85F00105701CC6B2607AB6EB31
:10522000400FA6DB27E0FFE72079012823D1208A61
:1052300008B3A08AADF80000002619E0BDF8000010
:1052400001A9FEF758FD218A019808440190608A5F
:105250000F304FF6F07108400490BDF8000001A92E
:10526000FEF76CFD0398000CADF80000701CC6B290
:10527000607AB042E2DC207A01285EDD002600255B
:10528000A08AADF80000BDF8000001A9FEF733FDCB
:105290000398000CADF80200BDF8020005A9FEF766
:1052A0002AFDA18AE182A18AE183BDF8021061830F
:1052B000BDF80210618400BF7DB1E07B00F0F00119
:1052C00061F31F1001A901EB051149686FF30D018E
:1052D000084301A901EB0511486001A800EB051086
:1052E00080686FF30F0085F0010101AA02EB011144
:1052F000896840EA114001A901EB0511886002EBC1
:1053000005113DF81500FEF719FD85F0010001A912
:1053100001EB00108068000C2DF8150001AA02EBCB
:1053200005113DF81500FEF7E6FC85F00105701C3F
:10533000C6B2607AB6EB400FBEDB3846F6E62DE922
:10534000F04F8BB083460C4615460027E0790128C4
:105350006ADDA08A2083A08A2084A18AE182A18AB2
:1053600061840095627A002304F11C015846FFF71E
:10537000FAFC0746002F7CD12A480540607B00F0EC
:10538000F00161F31F1045EA00450095627A0023A1
:1053900004F11E015846FFF7E6FC0746002F69D1CD
:1053A000B4F820A0B4F81C80B4F81E90002682E067
:1053B00007A95046FEF79FFC03A94046FEF79BFC59
:1053C00005986FF30F0040EA0900059007980390D5
:1053D00060890690208A28E0496E666F3A486244E8
:1053E0006D613A456E61626C65642070726F645FD6
:1053F00073636B2025782025780D0A00496E666F4F
:105400003A4862446D613A456E61626C656420633E
:105410006F6E735F73636B2025782025780D0A000B
:1054200001000602FFFF00C05FE048B1218A039837
:1054300008440390608A0F304FF6F07108400690E0
:1054400003A94046FEF77AFC05984FEA10480998F0
:105450001FFA80FA07A95046FEF74DFC089507A9E8
:105460005046FEF76BFC03A94846FEF744FC05983E
:1054700001E0D1E02EE06FF30F0040EA0800059054
:105480000798039060890690208A48B1218A039882
:1054900008440390608A0F304FF6F0710840069080
:1054A00003A94846FEF74AFC05984FEA10490998B7
:1054B0001FFA80FA761C607AB0423FF679AFA08B73
:1054C000A082E18BE182A08BA084A08B2085208C20
:1054D000E084A1E000200121CDE90010627AA18BD7
:1054E00003465846FFF70AFC96E0A08AA083A18AEB
:1054F000E1830095627A002304F120015846FFF70A
:1055000032FC0746002FE4D16FF30D05E07B00F07D
:10551000F00161F31F1005430095627A002304F146
:1055200022015846FFF71FFC0746002F6BD1B4F845
:1055300014A0B4F82080B4F82290002655E007A902
:105540005046FEF7D8FB03A94046FEF7D4FB079868
:105550000390059869F31F4005906089069003A9A0
:105560004046FEF7EBFB208A68B1218A0798084481
:105570000790608A0F304FF6F07108400A9007A933
:105580005046FEF7DBFB05981FFA80F809984FEAB2
:10559000104A07A95046FEF7AEFB03A94846FEF79E
:1055A000AAFB07980390059868F31F40059060894F
:1055B000069003A94846FEF7C1FB208A48B1218A1C
:1055C000079808440790608A0F304FF6F071084042
:1055D0000A90089507A95046FEF7B0FB05981FFAF8
:1055E00080F909984FEA104A761C607AB042A6D832
:1055F000208C2083618C6183208BE084A08AA0842E
:10560000A08A208508E0002000900190627A218C19
:1056100003465846FFF772FB38460BB0BDE8F08FE3
:105620001FB505462C4642F210773A4601A9D4F838
:10563000240121F038FE804600BF15F0D9F88146DC
:10564000B8F1010F3CD1D4F8280198B194F82C019D
:1056500080B1D4F8240122F051F830280AD2F7A101
:1056600004200CF01DF90120D4F8281188470020EF
:1056700084F82C01484615F0BFF801A92046FEF732
:10568000FCFF15F0B5F88146D4F8240122F036F875
:10569000064656B16A4601A9D4F8240121F063FFF9
:1056A0008046484615F0A8F814E0484615F0A4F8DE
:1056B0003A4601A9D4F8240121F0F5FD804609E01D
:1056C000484615F099F83A4601A9D4F8240121F08A
:1056D000EAFD8046B1E72DE9FF4107460C46154635
:1056E0001E4612E069463846FEF705FB009828443E
:1056F000009006F10F004FF6F071084003906946E4
:105700003846FEF71BFB0298070C201EA4F101018E
:105710008CB2E7D1BDE8FF812DE9F84F82460C46F7
:105720001546CC4E4FF000094FF00008BAF1000FBB
:105730004AD0002C48D0002D46D00026287A0228D6
:1057400019DC287A022801D0A87AA0B1287A012889
:1057500001D0E87A78B1A87A02280CD8E87A022831
:1057600009D8A87A012802D9E87A012803D828693B
:1057700010B1686900B9B74E96B9287A02280FD0DF
:1057800000270AE005F10C00C15D5046FEF753FF0B
:1057900008B1B04EB61D781C87B2A87AB842F1DCC9
:1057A00096B9287A01280FD000270AE005F10E00EB
:1057B000C15D5046FEF73FFF08B1A64EB61D781CEE
:1057C00087B2E87AB842F1DC002E7DD1482120462C
:1057D00025F0A1FEC4F800A0287A2071E878607155
:1057E000A87AE071E87A2072287B2073697B617364
:1057F000A87BA073E97BE17328886081A878607238
:10580000002020826082687AA0712869206368691C
:105810006063A869A063002084F83D0084F842001A
:10582000002143200155002084F844004520015503
:1058300000203E34608060702070287F20723E3CE3
:10584000287A022805D0687A18B9A8882082E888C2
:10585000608295F80280A87A012802DCE87A0128A3
:1058600001DD4FEA480804F12A01DAF8040000F0EB
:1058700012FE0646002E7DD1287A20B1012862D082
:10588000022878D193E0A87B00F0F00161F31F10AB
:1058900040F44040297B01F00F0140EA0140297BA0
:1058A00001F0F00140EA015040F04049CDF800908D
:1058B0002B881FFA88F204F114015046FFF753FABF
:1058C00006469EBBA18A00E0ADE0E182A08A20836B
:1058D000A18A6183E079012802DC207A01280DDDAC
:1058E000687A20B12046FFF715FC06461EE04A46BE
:1058F00021465046FFF723FD064617E0287AA8B94F
:10590000687A98B9208A30B1638A228A1FFA88F1AE
:10591000A08AFFF7E0FE1FFA88F2002304F11801C5
:105920005046CDF80090FFF71EFA064656B9A08AF9
:105930002085A084A083E18AE183208BE0842084F9
:10594000618B618461E0287B00F00F004FF47C5193
:1059500041EA0040297B01F0F00140EA015040F0AB
:105960004049CDF800902B881FFA88F204F1140109
:10597000504601E04AE046E0FFF7F5F906464EB929
:10598000A18AE182A08A2083A18A61832046FFF751
:10599000C1FB064656B9A08A2085A084A083E18A6F
:1059A000E183208BE0842084618B61842DE0A87BDF
:1059B00000F0F00161F31F1040F4404040F07C59CA
:1059C000CDF800902B881FFA88F204F1140150469C
:1059D000FFF7C9F906464EB9A18AE182A08A208361
:1059E000A18A61832046FFF795FB064656B9A08A37
:1059F0002085A084A083E18AE183208BE084208439
:105A0000618B618401E0134E00BF00BF3EB92146A7
:105A10005046FFF704FA012084F83C0003E04821D7
:105A2000204625F078FD3046BDE8F88F7CB5044669
:105A30000CB1206880B907487CBD0000543A486228
:105A4000446D613A496E747220656E61626C650DD9
:105A50000A0000000100060226682079022813D0FF
:105A600000250EE004F10C02515D3068FEF7B5FA36
:105A700004F10C00415D00223046FFF71EF9681C5E
:105A800085B2E079A842EDDC2079012813D0002509
:105A90000EE004F10E02515D3068FEF79EFA04F14B
:105AA0000E00415D00223046FFF707F9681C85B201
:105AB000207AA842EDDCE079012820DD0120009069
:105AC0000190238A627AE18A3046FFF717F90120B4
:105AD00000900190238A627AA18A3046FFF70EF97E
:105AE000208BA18A884262D0002000900190607AC9
:105AF0004200218B00233046FFF700F957E0207A5F
:105B0000012838DD2079022820D001200090019062
:105B1000238A607A4200A18A3046FFF7EFF8208B93
:105B2000A18A884243D0002000900190627A218BA4
:105B300003463046FFF7E2F8002000900190627AB9
:105B4000618B03463046FFF7D9F830E00120002191
:105B5000CDE90010627A218B00233046FFF7CEF8A2
:105B600001200021CDE90010627A618B00233046CC
:105B7000FFF7C4F81BE001202179022901D001219F
:105B800000E00021CDE90010238A627AA18A304624
:105B9000FFF7B4F8208BA18A884208D0002000903B
:105BA0000190627A218B03463046FFF7A7F8618D9A
:105BB000706800F0A4FC4821204625F0ACFC0020D1
:105BC0003AE770B504460D461CB1206808B1607A0A
:105BD00008B9F74870BD94F83C00012802D0F44899
:105BE000001DF7E744F82C5F022020740020A07409
:105BF000E074A0752C3C002143200155002084F85E
:105C00004400452001550020A4F840002A462146C2
:105C10002068FFF75CF90020DCE77FB504460CB193
:105C2000206810B9E24804B070BD21462068FFF733
:105C3000F6F8A68A002514E069463046FEF75BF8C0
:105C4000009820F0004000904FF6F0710398084053
:105C5000039069463046FEF771F80298060C681CFE
:105C600085B2607AA842E7DCA08A218B88421AD0EC
:105C7000268B002514E069463046FEF73CF8009874
:105C800020F0004000904FF6F07103980840039018
:105C900069463046FEF752F8029886B2681C85B213
:105CA000607AA842E7DC608D6946FEF724F8009828
:105CB00020F0004000904FF6F071039808400390E8
:105CC000608D6946FEF73AF8A08A2085A084A083FB
:105CD000E18AE183208BE0842084618B6184012050
:105CE00084F83C0000209EE710B504462046FFF7EC
:105CF00094FF10BD2DE9FF4104460D460027B8462C
:105D000034B12DB1E079012806DD207A012803DDC8
:105D1000A74804B0BDE8F0812079022801D1E68CC3
:105D200000E0A68C69463046FDF7E5FF0398C0F316
:105D3000C00700984FEAD0782079022803D14FB9E4
:105D4000B8F1000F06D12079022806D017B1B8F1BA
:105D5000000F02D09648001DDBE7009820F00040BD
:105D600028604FF6F07103980840A8800398000C53
:105D7000E880039800F00F0028810020C9E77FB574
:105D800004460D4600262CB125B12079012801D00A
:105D9000A07910B1864804B070BD207A012801DDD9
:105DA00094F83D60E08C6946FDF7A5FF28680090F7
:105DB000A8884FF6F0710840E98840EA0140297A46
